{
  "contractName": "PatentIdea",
  "abi": [
    {
      "anonymous": false,
      "inputs": [
        {
          "indexed": false,
          "internalType": "bool",
          "name": "",
          "type": "bool"
        }
      ],
      "name": "ideahashed",
      "type": "event"
    },
    {
      "constant": false,
      "inputs": [
        {
          "internalType": "string",
          "name": "idea",
          "type": "string"
        }
      ],
      "name": "SaveIdeaHash",
      "outputs": [
        {
          "internalType": "bool",
          "name": "",
          "type": "bool"
        }
      ],
      "payable": false,
      "stateMutability": "nonpayable",
      "type": "function"
    },
    {
      "constant": true,
      "inputs": [
        {
          "internalType": "string",
          "name": "idea",
          "type": "string"
        }
      ],
      "name": "isAlreadyHashed",
      "outputs": [
        {
          "internalType": "bool",
          "name": "",
          "type": "bool"
        }
      ],
      "payable": false,
      "stateMutability": "view",
      "type": "function"
    },
    {
      "constant": true,
      "inputs": [],
      "name": "getTracker",
      "outputs": [
        {
          "internalType": "int256",
          "name": "",
          "type": "int256"
        }
      ],
      "payable": false,
      "stateMutability": "view",
      "type": "function"
    }
  ],
  "bytecode": "0x6080604052600060025534801561001557600080fd5b50610441806100256000396000f3fe608060405234801561001057600080fd5b506004361061005e576000357c010000000000000000000000000000000000000000000000000000000090048063911564e514610063578063a8793f6914610081578063e92c848f14610154575b600080fd5b61006b610227565b6040518082815260200191505060405180910390f35b61013a6004803603602081101561009757600080fd5b81019080803590602001906401000000008111156100b457600080fd5b8201836020820111156100c657600080fd5b803590602001918460018302840111640100000000831117156100e857600080fd5b91908080601f016020809104026020016040519081016040528093929190818152602001838380828437600081840152601f19601f820116905080830192505050505050509192919290505050610231565b604051808215151515815260200191505060405180910390f35b61020d6004803603602081101561016a57600080fd5b810190808035906020019064010000000081111561018757600080fd5b82018360208201111561019957600080fd5b803590602001918460018302840111640100000000831117156101bb57600080fd5b91908080601f016020809104026020016040519081016040528093929190818152602001838380828437600081840152601f19601f820116905080830192505050505050509192919290505050610250565b604051808215151515815260200191505060405180910390f35b6000600254905090565b60008061023d8361033a565b9050610248816103b5565b915050919050565b60008061025c8361033a565b905061026f61026a8461033a565b6103b5565b156102e25760018060006101000a81548160ff0219169083151502179055507f50a0231b714fc7ad51309492c3e5b5c3fb79c5aa6646b65abd90b708f30b92e56000604051808215151515815260200191505060405180910390a1600160009054906101000a900460ff16915050610335565b6102eb816103de565b6001600254016002819055507f50a0231b714fc7ad51309492c3e5b5c3fb79c5aa6646b65abd90b708f30b92e56001604051808215151515815260200191505060405180910390a1505b919050565b6000816040516020018082805190602001908083835b602083106103735780518252602082019150602081019050602083039250610350565b6001836020036101000a038019825116818451168082178552505050505050905001915050604051602081830303815290604052805190602001209050919050565b600080600083815260200190815260200160002060009054906101000a900460ff169050919050565b600160008083815260200190815260200160002060006101000a81548160ff0219169083151502179055505056fea265627a7a7231582014517c0b94eb31488e8df4cb25303006bf0ad0bf991cd9054ea4628d8bd65c5964736f6c63430005100032",
  "source": "pragma solidity ^0.5.0;\ncontract PatentIdea {\n  mapping (bytes32 => bool) private hashes;\n  bool alreadyStored;\n  int tracker=0;\n  event ideahashed(bool);\n  function saveHash(bytes32 hash) private {\n    hashes[hash] = true;\n  }\n  function SaveIdeaHash(string memory idea) public returns (bool){\n    bytes32 hashedIdea = HashtheIdea(idea);\n   if (alreadyHashed(HashtheIdea(idea)))  {\n       alreadyStored = true;\n       emit ideahashed(false);\n       return alreadyStored;\n    }\n       saveHash(hashedIdea);\n          tracker = tracker+1;\n       emit ideahashed(true);\n  }\n  function alreadyHashed(bytes32 hash) private view returns(bool) {\n    return hashes[hash];\n  }\n  function isAlreadyHashed(string memory idea) public view returns (bool) {\n    bytes32 hashedIdea = HashtheIdea(idea);\n    return alreadyHashed(hashedIdea);\n  }\n   function HashtheIdea(string memory idea) private pure returns (bytes32) {\n      return  bytes32(keccak256(abi.encodePacked(idea)));\n  }\n    function getTracker() public view returns (int) {\n      return tracker;\n  }\n}",
  "sourcePath": "/Users/drequinox/ideap/contracts/PatentIdea.sol",
  "compiler": {
    "name": "solc",
    "version": "0.5.16+commit.9c3226ce.Emscripten.clang"
  },
  "schemaVersion": "3.0.23",
  "updatedAt": "2020-02-10T21:36:57.094Z",
  "networkType": "ethereum",
  "devdoc": {
    "methods": {}
  },
  "userdoc": {
    "methods": {}
  }
}